:100000000C945D000C9485000C9485000C94850084
:100010000C9485000C9485000C9485000C9485004C
:100020000C9485000C9485000C9485000C94E102DE
:100030000C9485000C9485000C9485000C9485002C
:100040000C943F020C9485000C94AF020C9489022E
:100050000C9485000C9485000C9485000C9485000C
:100060000C9485000C9485000000000024002700FB
:100070002A0000000000250028002B0004040404CE
:100080000404040402020202020203030303030342
:10009000010204081020408001020408102001021F
:1000A00004081020000000080002010000030407FB
:1000B00000000000000000009D0311241FBECFEFD0
:1000C000D8E0DEBFCDBF11E0A0E0B1E0EAE7FCE0A0
:1000D00002C005900D92A236B107D9F722E0A2E640
:1000E000B1E001C01D92A133B207E1F710E0CDE508
:1000F000D0E004C02197FE010E943506CC35D1071F
:10010000C9F70E94FA030C943B060C94000090E09F
:10011000FC01EC55FF4F2491FC01E057FF4F349157
:10012000FC01E458FF4FE491EE23C9F0222339F09B
:10013000233001F1A8F4213019F1223029F1F0E047
:10014000EE0FFF1FEE58FF4FA591B4918FB7F894B3
:10015000EC91611126C030953E233C938FBF0895EA
:100160002730A9F02830C9F0243049F78091800069
:100170008F7D03C0809180008F7780938000DFCFD8
:1001800084B58F7784BDDBCF84B58F7DFBCF809125
:10019000B0008F778093B000D2CF8091B0008F7D78
:1001A000F9CF3E2BDACFAF92BF92CF92DF92EF9290
:1001B000FF920F931F93CF93DF936C017B018B0111
:1001C000040F151FEB015E01AE18BF08C017D10761
:1001D00059F06991D601ED91FC910190F081E02DEB
:1001E000C6010995892B79F7C501DF91CF911F9140
:1001F0000F91FF90EF90DF90CF90BF90AF90089558
:10020000FC01538D448D252F30E0842F90E0821B1C
:10021000930B541710F0CF96089501970895FC01A1
:10022000918D828D981761F0A28DAE0FBF2FB11DF9
:100230005D968C91928D9F5F9F73928F90E0089551
:100240008FEF9FEF0895FC01918D828D981731F00B
:10025000828DE80FF11D858D90E008958FEF9FEF5F
:100260000895FC01918D228D892F90E0805C9F4F35
:10027000821B91098F73992708958CE691E00E9463
:10028000310121E0892B09F420E0822F089580E0DC
:1002900090E0892B29F00E943D0181110C9400000F
:1002A0000895FC01A48DA80FB92FB11DA35ABF4F0B
:1002B0002C91848D90E001968F739927848FA68965
:1002C000B7892C93A089B1898C91837080648C93B9
:1002D000938D848D981306C00288F389E02D808168
:1002E0008F7D80830895EF92FF920F931F93CF939A
:1002F000DF93EC0181E0888F9B8D8C8D98131AC061
:10030000E889F989808185FF15C09FB7F894EE8947
:10031000FF896083E889F9898081837080648083A4
:100320009FBF81E090E0DF91CF911F910F91FF90EF
:10033000EF900895F62E0B8D10E00F5F1F4F0F7397
:100340001127E02E8C8D8E110CC00FB607FCFACF52
:10035000E889F989808185FFF5CFCE010E9451019E
:10036000F1CFEB8DEC0FFD2FF11DE35AFF4FF08223
:100370009FB7F8940B8FEA89FB8980818062CFCF89
:10038000CF93DF93EC01888D8823B9F0AA89BB89CC
:10039000E889F9898C9185FD03C0808186FD0DC0B7
:1003A0000FB607FCF7CF8C9185FFF2CF808185FFD8
:1003B000EDCFCE010E945101E9CFDF91CF91089599
:1003C000FC0101900020E9F73197AF01481B590B60
:1003D000BC018CE691E00C94D3008F929F92AF9277
:1003E000BF920F931F93CF93DF93CDB7DEB7A19743
:1003F0000FB6F894DEBF0FBECDBF19A2423008F48D
:100400004AE08E010F5D1F4F842E912CB12CA12C40
:10041000A50194010E94F805E62FB901CA01EA304E
:10042000F4F4E05DD801EE938D01232B242B252BD2
:1004300079F790E080E0109719F0CD010E94E0017B
:10044000A1960FB6F894DEBF0FBECDBFDF91CF915E
:100450001F910F91BF90AF909F908F900895E95C8E
:10046000E1CFCF93DF930E94E001EC0182E191E0C4
:100470000E94E0018C0F9D1FDF91CF9108951F9284
:100480000F920FB60F9211242F933F938F939F9348
:10049000AF93BF938091680190916901A0916A0127
:1004A000B0916B013091670123E0230F2D3758F590
:1004B0000196A11DB11D209367018093680190935F
:1004C0006901A0936A01B0936B01809163019091DF
:1004D0006401A0916501B09166010196A11DB11D55
:1004E0008093630190936401A0936501B0936601CA
:1004F000BF91AF919F918F913F912F910F900FBE20
:100500000F901F90189526E8230F0296A11DB11D8C
:10051000D2CF1F920F920FB60F9211242F933F93B9
:100520004F935F936F937F938F939F93AF93BF93FB
:10053000EF93FF938CE691E00E945101FF91EF91C0
:10054000BF91AF919F918F917F916F915F914F91EB
:100550003F912F910F900FBE0F901F9018951F92F3
:100560000F920FB60F9211242F938F939F93EF93B7
:10057000FF93E0917C01F0917D018081E091820107
:10058000F091830182FD1BC09081809185018F5F76
:100590008F7320918601821741F0E0918501F0E090
:1005A000E459FE4F958F80938501FF91EF919F91C4
:1005B0008F912F910F900FBE0F901F9018958081F3
:1005C000F4CF1F920F920FB60F9211242F933F93E7
:1005D0004F935F936F937F938F939F93AF93BF934B
:1005E000CF93DF93EF93FF9380916201C0912D022F
:1005F000D0E087FF24C01092850010928400809183
:1006000062018F5F8093620180916201082E000C6D
:10061000990B8C179D0724F4809162018C30C4F1F2
:100620008091840090918500049680349C4908F460
:100630007AC08091840090918500049676C0809164
:100640006201082E000C990B8C179D07C4F6E091EF
:1006500062018E2FEE0F990BFC01EE0FFF1FE80FCA
:10066000F91FE75FFD4F808186FFC9CFE0916201EE
:100670008E2FEE0F990BFC01EE0FFF1FE80FF91FF5
:10068000E75FFD4F808160E08F730E948700B7CFE6
:100690002091840030918500E09162018E2FEE0F51
:1006A000990BFC01EE0FFF1FE80FF91FE75FFD4FED
:1006B00081819281820F931F90938900809388009B
:1006C000E09162018E2FEE0F990BFC01EE0FFF1FE0
:1006D000E80FF91FE75FFD4F808186FF11C0E091B1
:1006E00062018E2FEE0F990BFC01EE0FFF1FE80F3A
:1006F000F91FE75FFD4F808161E08F730E948700E3
:10070000FF91EF91DF91CF91BF91AF919F918F9129
:100710007F916F915F914F913F912F910F900FBEFD
:100720000F901F90189580E49CE990938900809326
:1007300088008FEF80936201E3CF10926F011092D7
:100740006E0188EE93E0A0E0B0E08093700190939A
:100750007101A0937201B093730184E091E09093D2
:100760006D0180936C0185EC90E09093790180930A
:10077000780184EC90E090937B0180937A0180EC87
:1007800090E090937D0180937C0181EC90E09093C8
:100790007F0180937E0182EC90E0909381018093B1
:1007A000800186EC90E09093830180938201109207
:1007B0008501109286011092870110928801809124
:1007C0002D028C3098F491E0980F90932D02809335
:1007D0002E0290E0FC01EE0FFF1FE80FF91FE75F0C
:1007E000FD4F88EB9BE09283818308958FEF809388
:1007F0002E020895CF93DF9300D01F92CDB7DEB7BE
:10080000789484B5826084BD84B5816084BD85B5EB
:10081000826085BD85B5816085BD80916E008160F7
:1008200080936E001092810080918100826080939D
:10083000810080918100816080938100809180009F
:100840008160809380008091B10084608093B100CA
:100850008091B00081608093B00080917A008460C4
:1008600080937A0080917A00826080937A008091F0
:100870007A00816080937A0080917A00806880930A
:100880007A001092C100E0917C01F0917D0182E03C
:100890008083E0917801F09179011082E0917A01F2
:1008A000F0917B0180E1808310928401E0918001CE
:1008B000F091810186E08083E0917E01F0917F01DB
:1008C000808180618083E0917E01F0917F01808151
:1008D00088608083E0917E01F0917F018081806853
:1008E0008083E0917E01F0917F0180818F7D808304
:1008F00034EB832E912CA12CB12C8CE691E00E943C
:100900003101892B09F4CFC085E191E00E943102C9
:100910008CE691E00E940F019B838A831A8183E217
:1009200091E00E94E001C12ED12CF12CE12C4AE093
:10093000C701B6010E94ED018DE291E00E943102F3
:100940008A81855B843108F09AC08A81855B990B26
:100950009B838A8380912E028C3008F06FC08A813D
:100960009B819927FC01E057FF4F449184589F4F8A
:10097000FC018491882399F090E0880F991FFC0175
:10098000E859FF4FA591B491FC01EE58FF4F259116
:1009900034918FB7F894EC914E2B4C938FBF80918C
:1009A0002E02282F30E0F901EE0FFF1FE20FF31F98
:1009B000E75FFD4F9081907C2A812F73922B90836B
:1009C00010922F02109230026CE00E942906869F3E
:1009D000F001112450E040E0BF01640F751F9B013E
:1009E000220F331F260F371FD901A75FBD4F9C91E0
:1009F00096FD16C04F5F5F4F4C30510569F781116E
:100A00000FC010928000F2E0F093810010928500F8
:100A100010928400B19A80916F00826080936F0081
:100A2000E0912E028E2F90E0FC01EE0FFF1FE80FE9
:100A3000F91FE75FFD4F8081806480838FE291E042
:100A40000E94E0018A819B816C01092E000CEE0856
:100A5000FF0897FF97C06DE28CE691E00E9473015A
:100A600066277727CB016C197D098E099F094AE01B
:100A70000E94ED0182E191E00E94E00114C0193C66
:100A8000F9F4E0912E028E2F90E0FC01EE0FFF1F93
:100A9000E80FF91FE75FFD4F80818F7B808385E43E
:100AA00091E00E94310280E090E0892B09F425CF8B
:100AB0000E943D01882309F420CF0E9400001DCF31
:100AC000153B88F790912E0299839C3008F056C010
:100AD0008091300268E5262E62E0362E281A310811
:100AE00087FD3394220C331C220C331C80912F027F
:100AF00008E810E0081B110987FD1395000F111F6E
:100B0000000F111F2801012E000C66087708AA812A
:100B1000BB81BB27A53BB10514F0A4EBB0E091016C
:100B2000032C000C440B550B2419350946095709B1
:100B30000E94F005A50194010E94C605420E531EB5
:100B4000641E751E401651062CF081014214530498
:100B50000CF4820102501109000F111F4FB7F894D5
:100B6000E9812E2F30E0C901880F991F820F931F52
:100B7000FC01E75FFD4F128301834FBF84E591E0E5
:100B80000E94E0014AE0C701B60172CF052E97FB33
:100B90001EF400940E94DD0557FD07D00E94F80561
:100BA00007FC03D04EF40C94DD055095409530952C
:100BB00021953F4F4F4F5F4F0895909580957095C9
:100BC00061957F4F8F4F9F4F08950E941A06A59FF2
:100BD000900DB49F900DA49F800D911D1124089538
:100BE000B7FF0C94E5050E94E505821B930B089561
:100BF000A1E21A2EAA1BBB1BFD010DC0AA1FBB1F21
:100C0000EE1FFF1FA217B307E407F50720F0A21B92
:100C1000B30BE40BF50B661F771F881F991F1A94FF
:100C200069F760957095809590959B01AC01BD0129
:100C3000CF010895A29FB001B39FC001A39F700D83
:100C4000811D1124911DB29F700D811D1124911DD4
:100C50000895991B79E004C0991F961708F0961B18
:100C6000881F7A95C9F780950895EE0FFF1F0590AC
:0A0C7000F491E02D0994F894FFCFF1
:100C7A00000000007301D3000001C00131010F011F
:100C8A0023010D0A0048656C6C6F204A6574736F06
:100C9A006E210052656365697665643A20270053C0
:100CAA006572766F20617474616368656420746F1D
:100CBA002070696E00536572766F20646574616393
:100CCA0068656400536572766F2073657420746F6B
:020CDA002000F8
:00000001FF
